:1000000002308A00752A000064000B138B138B1BCF
:100010000628A200030EA30000308C1A0130F8005D
:10002000780B3C28181D18280230F8002A281811CF
:10003000981C1E280330F8002A2898108C1A2328B0
:100040000030F8002A288C1E2A281A08A600013041
:10005000F8002A28780B2E2824143C28B401B50176
:100060000130B600B701B8004B20B401B501013032
:10007000B600B700B8004B20C0308B04230E8300BD
:10008000A20E220E09000A108A100A1182072834D3
:100090000F3401340634831618138312341C53288A
:1000A000831618178312181334181817831698120A
:1000B0008312361C5E288316981683128316181234
:1000C0008312351C66288316181683129813371866
:1000D0009817181238181816181198100800523C62
:1000E0003A10A53A0000C63A6E33EF3A2100831663
:1000F00018118312271C7F288316181583122808CD
:100100008316990083128A110A129C2A83168C1274
:100110008312281C8E2883168C16831283160C12C9
:100120008312271C962883160C16831298112918FF
:1001300098158A110A12B82A2C30840083130008FB
:100140000319B0280130F800F701F70BA528F80BC8
:10015000A4284A30F700F70BAB28AE28800BA22862
:1001600008003318B5280810B6280814831608109C
:100170008312B318BD288810BE28881483168810EF
:1001800083123319C5280811C628081583160811CB
:100190008312B319CD288811CE28881583168811AB
:1001A0008812831288168316881283128812080018
:1001B0008316081283120812B008031DE1280812E2
:1001C000E2280816831608122130F700F70BE628FC
:1001D000881283128812310EB2000F30B205320835
:1001E000B300B12031080F39B200B300B1200800CC
:1001F0008316081083120810831688108312881043
:10020000831608118312081183168811831288112E
:10021000831608128312081283168812831288121A
:100220000F30AC009C200130A7002708033C031CC2
:1002300021290330B300B1200530AC009C20A70A6F
:1002400015290230B300B120A7012708033C031C85
:10025000322927084320A800B0012808B100D8207F
:10026000A70A25298A110A12B92A2D0B38293B29F8
:100270004030AE003C29AE0101302C02AE072E0802
:100280008038AF00B0012F08B100D82008002B083B
:100290000C3A03195529063A03195D29073A03193F
:1002A0005D29053A031963296829B0010130B100BD
:1002B000D8200230AC009C206E290130AC00023006
:1002C000AD0035216E29B0011030B100D8206E2963
:1002D0000130B0002B08B100D8206E2908002A0890
:1002E000F8012902031877292908F7008329F70163
:1002F0000830AB00A90DF70D2A0877020318F700A4
:10030000F80DAB0B7A290800241C722A2608A700D6
:10031000270899000C30AB0047210830AB0047217B
:100320000130AC00AD0035216F3003178D00003077
:100330008F00031004300313A700831603178C17D4
:100340000C14000000000318CC2983120C087F391C
:100350000313A80003170D080313A90003170F08C0
:100360000313AA002808AB004721290803178D00B2
:1003700003132A0803178F0083168C170C14000030
:10038000000083120313A70BC629C929831603177C
:10039000CC29EA298316031783120C0D0E0D7F3921
:1003A0000313A80003170D080313A90003170F0870
:1003B0000313AA002808AB004721290803178D0062
:1003C00003132A0803178F008D0A03198F0A0313DA
:1003D000A70B9D292608A7001B30A8002708A90005
:1003E0006430AA006F217708A70078083030031D19
:1003F000002AA81C072AA819072A281A2030032A2D
:10040000A81128122814F8077808AB0047212708FC
:10041000A9000A30AA006F217708A70078083030B9
:10042000031D182AA8191C2A281C1C2A281A203047
:10043000F8077808AB0047213030A7072708AB0042
:10044000472124102608413C031D722A0130AC00CC
:100450000230AD003521733003178D0000308F005E
:1004600083168C170C140000000083120C087F39CF
:100470000319712A0313A70003170D080313A8001B
:1004800003170F080313A9002708AB00472128080A
:1004900003178D000313290803178F0083168C1789
:1004A0000C140000000083120C0D0E0D7F3903198F
:1004B000712A0313A70003170D080313A8000317DD
:1004C0000F080313A9002708AB00472128080317CA
:1004D0008D000313290803178F008D0A03198F0A53
:1004E000302A03138A110A12C42A840183131F308D
:1004F000830583161F149F141F159F118312A001DB
:10050000A10183160108C03981000C30F700831265
:1005100081018130840083130008F039073880009E
:1005200064000008F739F719F039770480000130CA
:10053000A7001930A800772880018B1B80178B1328
:10054000B401B5010130B600B700B8004B20801BE4
:100550008B178316811785018601803087008801FB
:10056000C03083128B04A7010130A800A90186289E
:10057000F8286430AC009C200C30AB0047210830D8
:0C058000AB00472164008429C22A6300FC
:02400E00723FFF
:00000001FF
;PIC16F877
;CRC=95A8  CREATED="21-jul-17 19:18"
